:100000000C9462000C948A000C948A000C948A0070
:100010000C948A000C948A000C948A000C948A0038
:100020000C948A000C948A000C948A000C948A0028
:100030000C948A000C948A000C948A000C948A0018
:100040000C94A2040C948A000C948A000C948A00EC
:100050000C948A000C948A000C948A000C948A00F8
:100060000C948A000C948A000000000024002700F1
:100070002A0000000000250028002B0000000000DE
:1000800023002600290004040404040404040202DA
:100090000202020203030303030301020408102007
:1000A0004080010204081020010204081020000012
:1000B0000008000201000003040700000000000027
:1000C0000000CE0511241FBECFEFD8E0DEBFCDBFAC
:1000D00011E0A0E0B1E0E0EBFFE002C005900D927E
:1000E000A437B107D9F721E0A4E7B1E001C01D9220
:1000F000A13AB207E1F710E0C2E6D0E004C02197D0
:10010000FE010E94D007C136D107C9F70E94EC0456
:100110000C94D6070C940000833081F028F48130D1
:1001200099F08230A9F008958730A9F08830C9F09D
:100130008430B1F4809180008F7D03C08091800075
:100140008F7780938000089584B58F7784BD08955C
:1001500084B58F7DFBCF8091B0008F778093B00006
:1001600008958091B0008F7DF9CFCF93DF93282F32
:1001700030E0F901E255FF4F8491F901E656FF4F57
:10018000D491F901EA57FF4FC491CC23A1F081111A
:100190000E948C00EC2FF0E0EE0FFF1FE458FF4FA1
:1001A000A591B491EC91ED2381E090E009F480E019
:1001B000DF91CF91089580E090E0FACF1F93CF9325
:1001C000DF93282F30E0F901E255FF4F8491F901C8
:1001D000E656FF4FD491F901EA57FF4FC491CC2363
:1001E000A9F0162F81110E948C00EC2FF0E0EE0F89
:1001F000FF1FEE58FF4FA591B4918FB7F894EC9183
:10020000111108C0D095DE23DC938FBFDF91CF9111
:100210001F910895DE2BF8CFCF93DF9390E0FC0180
:10022000E656FF4F24918A579F4FFC018491882303
:10023000C9F090E0880F991FFC01E859FF4FA59184
:10024000B491FC01EE58FF4FC591D49161110DC0DE
:100250009FB7F8948C91209582238C9388812823D2
:1002600028839FBFDF91CF910895623051F49FB7EB
:10027000F8943C91822F809583238C93E8812E2BD8
:10028000EFCF8FB7F894EC912E2B2C938FBFEACF42
:100290003FB7F8948091850190918601A0918701E4
:1002A000B091880126B5A89B05C02F3F19F0019693
:1002B000A11DB11D3FBFBA2FA92F982F8827BC01C0
:1002C000CD01620F711D811D911D42E0660F771FE8
:1002D000881F991F4A95D1F708958F929F92AF92E8
:1002E000BF92CF92DF92EF92FF924B015C010E948E
:1002F00048016B017C010E9448016C197D098E093F
:100300009F09683E734081059105A8F321E0821A98
:100310009108A108B10888EEC80E83E0D81EE11C40
:10032000F11C81149104A104B10429F7FF90EF900E
:10033000DF90CF90BF90AF909F908F900895AF9235
:10034000BF92CF92DF92EF92FF920F931F93CF93C2
:10035000DF936C017B018B01040F151FEB015E0124
:10036000AE18BF08C017D10759F06991D601ED91B9
:10037000FC910190F081E02DC6010995892B79F758
:10038000C501DF91CF911F910F91FF90EF90DF900A
:10039000CF90BF90AF900895089590E080E00895C9
:1003A000CF92DF92EF92FF92CF9361E08EE00E94B6
:1003B0000C0161E08EE00E94DE0060E08FE00E94B0
:1003C000DE0060E08EE00E940C018EE00E94B5002D
:1003D000892BD9F7C8E1C12CD12C760161E08FE0DF
:1003E0000E94DE00CC0CDD1CEE1CFF1C60E08FE0E8
:1003F0000E94DE008EE00E94B500892B29F02FEFCD
:10040000C21AD20AE20AF20AC15041F761E08FE053
:100410000E94DE0060E08FE00E94DE00C701B601AE
:100420008058CF91FF90EF90DF90CF9008958F92FA
:100430009F92AF92BF920F931F93CF93DF93CDB74D
:10044000DEB7A1970FB6F894DEBF0FBECDBF19A2DD
:10045000423008F44AE08E010F5D1F4F842E912C2C
:10046000B12CA12CA50194010E948F07E62FB901A0
:10047000CA01EA3044F5E05DD801EE938D01232BEB
:10048000242B252B79F790E080E0109769F0FD018F
:1004900001900020E9F73197AF014A1B5B0BBD01CA
:1004A00089E891E00E949F01A1960FB6F894DEBF03
:1004B0000FBECDBFDF91CF911F910F91BF90AF9035
:1004C0009F908F900895E95CD7CFFC0101900020A8
:1004D000E9F73197AF01481B590BBC0189E891E05E
:1004E0000C949F01CF93DF93EC0160E08E810E941A
:1004F000DE0061E08E810E94DE0060E08E810E945D
:10050000DE008BE891E00197F1F7DF91CF9108953C
:10051000CF92DF92EF92FF920F931F93CF93DF93CF
:100520006C017C0187E0E80EF11CD0E0C0E0062FF2
:1005300010E0B8010C2E02C0759567950A94E2F799
:100540006170F70181917F010E94DE002196C43025
:10055000D10579F7C601DF91CF911F910F91FF90DF
:10056000EF90DF90CF900C947202CF92DF92EF92D7
:10057000FF920F931F93CF93DF93EC01F62E642F1E
:100580008C810E94DE008D818F3F19F060E00E9417
:10059000DE000F2D10E08F8584FF25C06E0187E0FF
:1005A000C80ED11CF12CE12CB8010E2C02C075959F
:1005B00067950A94E2F76170F60181916F010E94DC
:1005C000DE00FFEFEF1AFF0A88E0E816F10461F79A
:1005D000CE01DF91CF911F910F91FF90EF90DF90AF
:1005E000CF900C947202B80184E0759567958A9556
:1005F000E1F7CE010E9488026F2DCE01DF91CF91ED
:100600001F910F91FF90EF90DF90CF900C94880294
:1006100040E0682F89E891E00C94B50281E00E94E7
:1006200008038BE39FE10197F1F70895CF93DF93E0
:10063000823029F49091980198609093980180936A
:100640009C0110929D0180E480939E0180E1809343
:100650009F0180E58093A00161E080918D010E945F
:100660000C0180918E018F3F19F061E00E940C0116
:1006700061E080918F010E940C01C9E8D1E09E01E8
:10068000295831408091980184FD0BC084E090E0AE
:1006900021962817390744F461E08E810E940C01ED
:1006A000EECF88E090E0F4CF8BE39DE00197F1F787
:1006B00060E080918D010E94DE0060E080918F01FA
:1006C0000E94DE0080918E018F3F19F060E00E9451
:1006D000DE008091980184FD34C063E089E891E0F8
:1006E0000E948802CBE4D6E4CE010197F1F763E0E3
:1006F00089E891E00E9488022197F1F763E089E898
:1007000091E00E94880283E592E00197F1F762E0B0
:1007100089E891E00E9488028091980180620E949D
:10072000080384E0809399018CE00E9408030E94F2
:100730000E0382E080939A0186E0DF91CF910C94C2
:10074000080380620E9408038BE496E40197F1F7A6
:100750008091980180620E94080383E592E00197EE
:10076000F1F78091980180620E940803D5CF9091A3
:100770009C01891710F08FEF890FE82FF0E0E75701
:10078000FE4F848980680C940803CF92DF92EF9229
:10079000FF920F931F93CF93DF930E940E038CE081
:1007A00091E00E94650281E00E94B7038BE191E035
:1007B0000E946502C4E6D0E00E94D00160937C01F3
:1007C00070937D0180937E0190937F010091780169
:1007D0001091790120917A0130917B01600F711F96
:1007E000821F931F609378017093790180937A013F
:1007F00090937B01219701F724E630E040E050E040
:100800000E94B107209378013093790140937A01D7
:1008100050937B010E940E038AE291E00E946502E0
:1008200010927C0110927D0110927E0110927F0146
:1008300080917C0190917D01A0917E01B0917F011A
:10084000883E9340A105B105DCF40E94D0010091DF
:1008500078011091790120917A0130917B01680132
:100860007901C61AD70AE80AF90AD701C6018093A6
:100870007C0190937D01A0937E01B0937F01D8CF3E
:100880000E940E038AE391E00E94650260ED77E02A
:1008900080E090E00E946D01C4E6D0E00E94D001AB
:1008A00060937C0170937D0180937E0190937F0122
:1008B000009178011091790120917A0130917B01AA
:1008C00068017901C61AD70AE80AF90AC701B60110
:1008D0000E940307209174013091750140917601C7
:1008E000509177010E94ED0560937401709375013A
:1008F0008093760190937701219781F620E030E094
:1009000048EC52E40E94590620E030E048EC52E402
:100910000E9459066093740170937501809376016B
:1009200090937701DF91CF911F910F91FF90EF90FE
:10093000DF90CF900C940E0341E00E94B50281E05D
:1009400090E008951F920F920FB60F9211242F93EB
:100950003F938F939F93AF93BF9380918101909129
:100960008201A0918301B09184013091800123E044
:10097000230F2D3758F50196A11DB11D209380013D
:100980008093810190938201A0938301B0938401AD
:100990008091850190918601A0918701B091880195
:1009A0000196A11DB11D8093850190938601A093AE
:1009B0008701B0938801BF91AF919F918F913F9133
:1009C0002F910F900FBE0F901F90189526E8230FC0
:1009D0000296A11DB11DD2CF789484B5826084BDEA
:1009E00084B5816084BD85B5826085BD85B5816033
:1009F00085BD80916E00816080936E0010928100B1
:100A0000809181008260809381008091810081606B
:100A1000809381008091800081608093800080912C
:100A2000B10084608093B1008091B00081608093B8
:100A3000B00080917A00846080937A0080917A007F
:100A4000826080937A0080917A00816080937A003E
:100A500080917A00806880937A001092C10061E0F2
:100A60008FE00E940C0162E088E00E940C0182E0AD
:100A70000E9416038AE491E00E94650281E00E94D0
:100A8000B70383E591E00E94650268EE73E080E0C1
:100A900090E00E946D010E940E030E94C503C0E019
:100AA000D0E00E94D00160937C0170937D0180931F
:100AB0007E0190937F01C0907801D0907901E09001
:100AC0007A01F0907B016C197D098E099F090E94C3
:100AD0000307209174013091750140917601509186
:100AE00077010E9459066B017C01AC019B010E94B9
:100AF000ED059B01AC01C701B6010E94EC050E9407
:100B0000CB066B0180E00E94B70381E691E00E9472
:100B1000650281E00E94B7030D2C000CEE08FF086F
:100B20004AE0C701B601F7FE0EC041E06DE289E878
:100B300091E00E94B50266277727CB016C197D09E9
:100B40008E099F094AE00E94170281E791E00E9406
:100B5000650288E00E94B500892BD1F410927401DF
:100B6000109275011092760110927701109278011F
:100B70001092790110927A0110927B0110927C01FF
:100B800010927D0110927E0110927F010E94C50398
:100B9000209709F486CF0E94000083CFE9E8F1E0B6
:100BA0001382128284E091E09183808387E08483C2
:100BB0008FEF858386E0868385E0878384E0808766
:100BC00083E0818782E082871386148615861686E5
:100BD000178681E00C9416035058BB27AA270E9461
:100BE00004060C9455070E94470738F00E944E07F0
:100BF00020F039F49F3F19F426F40C9444070EF4C6
:100C0000E095E7FB0C943E07E92F0E94660758F336
:100C1000BA17620773078407950720F079F4A6F5E1
:100C20000C9488070EF4E0950B2EBA2FA02D0B0123
:100C3000B90190010C01CA01A0011124FF27591B21
:100C400099F0593F50F4503E68F11A16F040A22F27
:100C5000232F342F4427585FF3CF46953795279598
:100C6000A795F0405395C9F77EF41F16BA0B620B97
:100C7000730B840BBAF09150A1F0FF0FBB1F661FDE
:100C8000771F881FC2F70EC0BA0F621F731F841F21
:100C900048F4879577956795B795F7959E3F08F047
:100CA000B0CF9395880F08F09927EE0F9795879509
:100CB00008950E946D060C9455070E944E0758F047
:100CC0000E94470740F029F45F3F29F00C943E074B
:100CD00051110C9489070C9444070E94660768F32D
:100CE0009923B1F3552391F3951B550BBB27AA27E5
:100CF00062177307840738F09F5F5F4F220F331F1F
:100D0000441FAA1FA9F335D00E2E3AF0E0E832D0E6
:100D100091505040E695001CCAF72BD0FE2F29D0E9
:100D2000660F771F881FBB1F261737074807AB07BB
:100D3000B0E809F0BB0B802DBF01FF2793585F4F30
:100D40003AF09E3F510578F00C943E070C948907C9
:100D50005F3FE4F3983ED4F3869577956795B79512
:100D6000F7959F5FC9F7880F911D9695879597F91D
:100D70000895E1E0660F771F881FBB1F6217730796
:100D80008407BA0720F0621B730B840BBA0BEE1FAB
:100D900088F7E09508950E94D2066894B1110C94EA
:100DA000890708950E946E0788F09F5798F0B92F21
:100DB0009927B751B0F0E1F0660F771F881F991F90
:100DC0001AF0BA95C9F714C0B13091F00E948807A3
:100DD000B1E008950C948807672F782F8827B85FB3
:100DE00039F0B93FCCF3869577956795B395D9F7E8
:100DF0003EF490958095709561957F4F8F4F9F4FF2
:100E00000895E89409C097FB3EF4909580957095FD
:100E100061957F4F8F4F9F4F9923A9F0F92F96E946
:100E2000BB279395F695879577956795B795F111BB
:100E3000F8CFFAF4BB0F11F460FF1BC06F5F7F4F58
:100E40008F4F9F4F16C0882311F096E911C077236A
:100E500021F09EE8872F762F05C0662371F096E873
:100E6000862F70E060E02AF09A95660F771F881F42
:100E7000DAF7880F9695879597F9089597F99F6700
:100E800080E870E060E008959FEF80EC0895002412
:100E90000A941616170618060906089500240A94DF
:100EA00012161306140605060895092E0394000C65
:100EB00011F4882352F0BB0F40F4BF2B11F460FFF4
:100EC00004C06F5F7F4F8F4F9F4F089557FD90581D
:100ED000440F551F59F05F3F71F04795880F97FBFE
:100EE000991F61F09F3F79F08795089512161306B8
:100EF0001406551FF2CF4695F1DF08C016161706E7
:100F00001806991FF1CF869571056105089408951B
:100F1000E894BB2766277727CB0197F90895A1E2CC
:100F20001A2EAA1BBB1BFD010DC0AA1FBB1FEE1F63
:100F3000FF1FA217B307E407F50720F0A21BB30BAE
:100F4000E40BF50B661F771F881F991F1A9469F72A
:100F500060957095809590959B01AC01BD01CF0186
:100F60000895052E97FB1EF400940E94C80757FDB4
:100F700007D00E948F0707FC03D04EF40C94C807DB
:100F800050954095309521953F4F4F4F5F4F0895B5
:100F900090958095709561957F4F8F4F9F4F0895E5
:100FA000EE0FFF1F0590F491E02D0994F894FFCF08
:100FB000000000009C049F01CD01CC0143616C69DD
:100FC00062726174696E672E2E2E00506C656173BB
:100FD0006520576169742E2E2E00507574203130B3
:100FE00030672077656967687400506C6561736568
:100FF00020576169742E2E2E2E0020576569676870
:10100000742000204D6561737572656D656E742086
:10101000004D656173757265642057656967687412
:041020000067200045
:00000001FF
